:020000040000FA
:020000005B2E75
:040008008031772E9E
:02000E000000F0
:10001000C40B07280800C508031D0F280800F93085
:1000200000000000000000000000000000000000D0
:100030000000000000000000FF3E031D102800002B
:1000400000000000000000000000000000000000B0
:100050000000000000000000C50B0F280800740815
:10006000F700F6010310F70DF60DF70DF60DF70783
:100070000318F60AF7070318F60A4830F7070318BB
:10008000F60A003076078A007508F60077088200C5
:1000900000308A000030F7005E30572800308A00B8
:1000A0000030F7006E3057280030F700B930F607FF
:1000B0000318F70A77088A007608820000340134B2
:1000C000013400340134003400340134013400348C
:1000D0000034013400340134013400343E345134EE
:1000E000493445343E34003442347F3440340034A3
:1000F0007234493449344934463421344134493422
:100100004D3433341834143412347F3410342734DB
:1001100045344534453439343C344A34493449341F
:1001200031344134213411340934073436344934FC
:1001300049344934363446344934493429341E3438
:10014000003400346034603400340034083408343F
:1001500008340034083408343E3408340834383461
:100160004434443428347F347F3449344934493466
:1001700036340F3410340F3400341F34103410343C
:100180000034003400340034113415341F3400348A
:100190001F3411341F340034003400340034003470
:1001A0001F3415341D3400341F3411341F3400340F
:1001B0000034003400341F3400341D341534173437
:1001C00000341F3411341F34003400341D3415340E
:1001D00017340034173415341D3400341F341134EF
:1001E0001F3400340034173415341D3400341F34E8
:1001F00011341F3400341F3411341F3400340034E0
:1002000000341F3400341F340834143400340034F4
:1002100000340034003400341D34153417340034F5
:100220001F340834143400340034003400340034F3
:100230000F3408341C3400341F34083414340034B0
:10024000003400340034003400341F3415341F34BB
:1002500000341F34083414340034003400340034C3
:100260001F3400341F3415341D3400341F34083457
:100270001434FA30C5000B20FA30C5000B20FA30D8
:10028000C5000B20FA30C5000B20C40B392908002B
:100290001F302400160503191419482908004821A5
:1002A0007308910008004821161408005321783083
:1002B000F3004F21F3014F210800482116150800D3
:1002C0004908230091009513151413082000CA0053
:1002D0000800F801FB01FC017608F900FA01F819A1
:1002E0000800771C79297908FB070318FC0A7A08AB
:1002F000FC07F70C0310F90DFA0DF80A6F29F90144
:10030000FC01FD017508FA007608FB00791A080067
:10031000771C90297A08FC077B0803187B0FFD07E0
:100320000310F80CF70C0310FA0DFB0DF90A8629DF
:1003300053218430F3004F2120004008F3004F2167
:1003400020003808803EF3004F2120003208903E04
:10035000F3004F2120003408A03EF3004F2120007D
:100360003608B03EF3004F2120003008C03EF300B5
:100370004F215D2114302000C40007205321863016
:10038000F3004F21F3014F2120003908803EF30094
:100390004F2120003308903EF3004F212000350804
:1003A000A03EF3004F2120003708B03EF3004F215C
:1003B00020003108C03EF3004F215D2108002000DD
:1003C00040082F3CC600FF30C700C800C9002E30CF
:1003D00046020318F9292E30C500450846020318C5
:1003E000F929C7080319F929C708C7350230C5021A
:1003F000ED291E30460203180B2A1E30C5004508A1
:10040000460203180B2AC80803190B2AC808C83566
:100410000230C502FF290E30460203181D2A0E3095
:10042000C5004508460203181D2AC90803191D2ADC
:10043000C908C9350230C502112A003085004A308A
:1004400084001330DD008001840ADD0B232AC401FF
:100450000A3044020318512A0030850030308400ED
:10046000440884070008F3000830730203184F2A79
:10047000FE30F4000730C500450873020318472A10
:10048000F4080319472AF408F435C5033C2A003060
:1004900085004A3084004408840774088000C40A38
:1004A000282AC4010A30440203187C2A003085003F
:1004B00030308400440884070008F3007308083CC7
:1004C00003187A2A7F30F4000F30C5004508730204
:1004D0000318712AF4080319712AF408F436C503C5
:1004E000662A003085004A3084000A3044078407B9
:1004F00074088000C40A522ADE01DF01E001E10134
:10050000E201E301E401E501E601E701E801E901B7
:100510000330EA00BF08031D032BC0080319FD2A9E
:100520000B30DE004008F500F6017730F7000130AF
:10053000F8007F217C08F3007D08F4002730740266
:10054000031DA42A10307302031CB62A273074023C
:10055000031DAC2A10307302031CB82A1030F302BA
:100560002730031C2830F402DF0AA62A0F30DF00F0
:1005700003307402031DBE2AE8307302031CC82A2C
:10058000E830F3020330031C0430F402E00AB82A16
:100590007308003C031874080319352B0A30E10076
:1005A00000307402031DD62A64307302031CE12A52
:1005B0006430F302F408031CF403E20A0530EA0095
:1005C000D02A00307402031DE72A0A307302031C8C
:1005D000F22A0A30F302F408031CF403E30A06309B
:1005E000EA00E12A7308003C031874080319352B4C
:1005F0007308E4000730EA00352B0F30DE00DF001F
:100600000330EA00352B00308500303084003F0392
:1006100084070008F3007308003C0318312B7308AB
:10062000073C031C162B0C30DE001E2B7308083C05
:1006300003181E2B0B30DE000830F3027308F400A1
:10064000F4350A307402031C2C2B0130DF000A3011
:10065000F4027408E000352B7408DF000230EA0071
:10066000352B0F30DE000230EA00003085005E30AE
:1006700084006A0884070F308000EA0A5E30840034
:100680006A0884070D308000EA0A5E3084006A0838
:1006900084070E308000EA0A6A08093C031C5A2BC2
:1006A000003085005E3084006A0884070F308000C7
:1006B000EA0A4C2B56212230F3004F21F3014F213F
:1006C0000430F3004F212130F3004F21F3014F217B
:1006D0007F30F3004F215D2153217830F3004F210B
:1006E0004030F3004F2101302000EC00ED01C40147
:1006F000803044020318A32B4308F4004408F5009B
:100700002F20EB0008304402803103188A2BBF08E9
:1007100003196B170A304402031C9D2B0A306D022B
:100720000318962B3F086C0603196B17ED0A6D082A
:100730000C3A031D9D2BED01EC0A6B08F3004F21D1
:100740002000C40A782BED01EC01C4018030440282
:100750000318DE2BEB0101304402031CB62B4408C6
:10076000063C031CB62B4708EB00D82B0A3044028A
:10077000031CD82B6D08003C0318CD2B09306D02EB
:100780000318CD2B003085004A3084006C088407A4
:100790000008F3000310730CEB000A306D02031C19
:1007A000EB17ED0A6D080C3A031DD82BED01EC0A8E
:1007B0006B08F3004F212000C40AA62BED01EC01C9
:1007C000C401803044020318132CEB0101304402B1
:1007D000031CF12B4408063C031CF12B4808EB00DA
:1007E0000D2C0A304402031C0D2C6D08003C03182C
:1007F000062C09306D020318062C003085004A30A3
:1008000084000A306C0784070008EB00ED0A6D08CD
:100810000C3A031D0D2CED01EC0A6B08F3004F217F
:100820002000C40AE12BEE01EF01F001F101F20119
:10083000C401803044020318662CEB0101304402ED
:10084000031C282C4408063C031C282C4908EB00F8
:100850000830440203182E2CEB17602C44082C3C63
:100860000318602C0A3070020318602CEE08031D78
:10087000412C003085005E30840070088407000839
:10088000F10005306E020318582C0F307102031866
:10089000582C4208F4007108F6000530F700692171
:1008A0007B08F5007C08F3006E08F5072F20EB00AD
:1008B000EE0A6E08053C80310318602CEE01F00A48
:1008C0006B08F3004F212000C40A192C5D21080099
:1008D0005621AE30F3004F21D530F3004F21803048
:1008E000F3004F21A830F3004F215D2156211F3026
:1008F000F3004F215D215621D330F3004F21F30146
:100900004F214030F3004F218D30F3004F215D2106
:1009100056211430F3004F215D2156212030F30081
:100920004F21F3014F21A130F3004F21C830F300D4
:100930004F215D215621DA30F3004F215D215621F0
:100940000230F3004F215D2156218130F3004F2109
:100950005D2156218F30F3004F215D215621D93082
:10096000F3004F215D215621F130F3004F215D212D
:100970005621DB30F3004F214030F3004F21A430EB
:10098000F3004F21A630F3004F212E30F3004F210A
:10099000AF30F3004F215D2108000B302000C9006B
:1009A00060214A080A3A031D0800C4010A304402C3
:1009B0000318E72C4408C90060210030850030305E
:1009C0008400440884074A088000C40AD62C0A30F0
:1009D000C90060214A08C0000800C8014608C900D3
:1009E000602147084A060319112D0B08C900460863
:1009F000230091002000470823009300951315154C
:100A00008B0155309600AA309600951420004908B5
:100A10008B00230015112000121E0B2D1212013025
:100A2000C8004808C90008002000C401C5010A30F8
:100A3000450203182A2D4508C600003085003030D5
:100A40008400450884070008C700ED244908C4074E
:100A5000C50A172D0A30C6004008C700ED24490812
:100A6000C407C408031908000B30C6000A30C700C9
:100A7000ED2408007A30210099003C308C002000E1
:100A80008C01033021008E0020008E0023008C0199
:100A900024008C0123008E0124008E012100951773
:100AA00028302400950096012730920094171413E3
:100AB000200092110130C4003921CD2498019816EC
:100AC00018161815181421001114200011100B17F6
:100AD0008B1798216824DF2120000E150800C7011C
:100AE000003085003A308400460884070008C800BA
:100AF000003085003C308400460884070008C900A7
:100B0000C808C80DC80DFC30C8054508C8040F301A
:100B1000C805003085003A3084004608840748083C
:100B200080002008F4004808F500F5352F20FF3933
:100B300080310319B42D490EF039C9004808C904A1
:100B4000003085003C308400460884074908800056
:100B500049082A3A031DAE2D0430C7004908173A48
:100B6000031DB42D0330C7004708CA000800C4089D
:100B7000031908003F03C500C601BF080319C82DAB
:100B80000030850030308400450884070008C60026
:100B90004408033A031DEC2DBF08031DD42D400863
:100BA000003C031CC003EA2D073046020318DA2D6F
:100BB000C60ADE2D4608083C031CC6034608083A50
:100BC0000319C601003085003030840045088407D1
:100BD000460880003E1508004408043A031D08003A
:100BE000BF08031DF82D2F304002031CC00A102E31
:100BF000C608031DFE2D0930C600082E4608073C16
:100C0000031C042EC603082E0F304602031CC60A1E
:100C10000030850030308400450884074608800095
:100C20003E1508004408033A031D1F2E3F080A3AE8
:100C3000031D1C2EBF011D2EBF0ABE140800440850
:100C4000043A031D0800BF08031D292E0A30BF0007
:100C50002A2EBF03BE1408003A253E08003C0318A4
:100C6000422EBE1C372E9821DF212000BE103E1DD3
:100C70003D2E9821DF2120003E11BE1D2D2E142572
:100C8000BE112D2E0C300C05C500C50CC50C3F3017
:100C9000C505C6016F254A08C400122630300C0570
:100CA000C700470E0F39C5000130C6006F254A083E
:100CB000C400B7252D2E2000BE01B001B101B20144
:100CC000B301B401B501B601B701B801B901BF0163
:100CD0002F30C000C1010030A000BA01BB01BC012F
:100CE000BD010130C2000230C30080312C2E200033
:100CF000111C09002100111C0900E73020004102ED
:0E0D0000031C842EC101BE15C10A111009008A
:020000040001F9
:02000E0084F973
:02001000FFDA15
:00000001FF
